:020000020000FC
:102000004F938F939F930F93F89445B14C7F45B9AD
:1020100044B1436044B94BB14F704BB94AB1406FC2
:102020004AB9789490E084E60E94D01091E48FEF52
:102030000E94D010F8944BB14F7040634BB9789424
:102040000E94721091E18FEF0E94D010F8944BB172
:102050004F7040634BB978940E94721090E088E70B
:102060000E94D010F8944BB14F7040634BB97894F4
:102070000E947210F8944BB14F7040624BB9789443
:102080000E94721008E20E9480100CE00E948010F2
:1020900006E00E9480100E94BE100F919F918F91C8
:1020A0004F9108950E9457100E94BD1008950F93FC
:1020B000012F0E946C100F9108958F939F930F939F
:1020C0000F7300640E94801090E088E20E94D0109C
:1020D0000F919F918F9108950F9300680E94801037
:1020E0000F9108958F939F93299A90E084E10E9425
:1020F000D010299884E10E94D0109F918F9108956B
:102100000F931F934F93102F107F000F000F000F9E
:10211000000F2898F8944BB14F70412B4BB978942D
:102120000E947210F8944BB14F70402B4BB97894C9
:102130000E9472104F911F910F9108950F931F935A
:102140004F93102F107F000F000F000F000F289AE1
:10215000F8944BB14F70412B4BB978940E94721098
:10216000F8944BB14F70402B4BB978940E94721089
:1021700028984F911F910F910895E0CF9F938F93CF
:102180000F9301E00E94801097E08FEF0E94D01023
:102190000F918F919F9108952A9A08952A980895F2
:1021A0004F9344E04A95F1F70197D9F74F9108957D
:040000000C9400015B
:04002C000C947C02B2
:100200000E9400100E949F010E94AA010E946402A5
:1002100000E0009300010E94BE104427552700E330
:1002200010E00E94521011E00E9452100AE312E006
:100230000E94521000E313E00E94521014E00E944A
:1002400052100E943C02203FE1F722270E94BA018F
:100250000E943C02203FE1F722270E94FC013091DE
:1002600000013030E1F330E030930001403011F410
:10027000503059F05A955F3F11F45BE34A950E9464
:10028000E7010E9427020C942F0104E0003071F076
:100290000E9445020A9589E17FEF6FEF6A95F1F7B9
:1002A0007A95D9F78A95C1F70C94460106E510E0D6
:1002B0000E94521001E411E00E9452100AE412E080
:1002C0000E94521009E413E00E94521003E414E06B
:1002D0000E9452100BE415E00E94521001E416E057
:1002E0000E94521000E217E00E94521005E518E04B
:1002F0000E94521006E519E00E94521001E41AE033
:100300000E94521002E51BE00E94521005E41CE01E
:100310000E9452100EE41DE00E94521001E41EE003
:100320000E9452100E943C021FEF0FEF0A95F1F756
:100330001A95D9F72039B1F722270C940B010F93A6
:1003400000917A00006800937A0000E600937C0038
:100350000F9108950F9300917A00006400937A0042
:100360000F9108950F9300917A0000740034D9F32F
:100370000F9108952F9344270E943C021FEF0FEF27
:100380000A95F1F71A95D9F7203FB1F3203989F092
:10039000203189F02033A9F00E94E7012FE01FEF00
:1003A0000FEF0A95F1F71A95D9F72A95C1F70C9432
:1003B000BC012F91089543954C3361F744270C9469
:1003C000CA014A954F3F41F74BE30C94CC015F9330
:1003D000542F33275A3020F03F5F5A500C94EA01D3
:1003E000032F005D10E00E945210052F005D11E008
:1003F0000E9452105F91089555270E943C021FEF02
:100400000FEF0A95F1F71A95D9F7203FB1F320398C
:1004100089F0203181F02033A1F00E9427022FE0E3
:100420001FEF0FEF0A95F1F71A95D9F72A95C1F743
:100430000C94FD01089553955C3369F755270C948E
:100440000B025A955F3F49F75BE30C940D024F9303
:10045000452F33274A3020F03F5F4A500C942A0240
:10046000032F005D13E00E945210042F005D14E082
:100470000E9452104F9108950E94AA010E94B20159
:1004800020917900207F203F08950F930E94BE1095
:1004900084E17FEF6FEF6A95F1F77A95D9F78A9546
:1004A000C1F700E310E00E94521011E00E945210C8
:1004B00013E00E94521014E00E9452100AE312E06E
:1004C0000E9452100F9108950F93F8940027009303
:1004D00085000093840002E000936F000DE000931C
:1004E00081000DE30093890008E000938800002755
:1004F0000DBB78940F9108950F930FB70F9301E000
:0C050000009300010F910FBF0F911895A0
:00000001FF
