:020000020000FC
:102000004F938F939F930F93F89445B14C7F45B9AD
:1020100044B1436044B94BB14F704BB94AB1406FC2
:102020004AB9789490E084E60E94D01091E48FEF52
:102030000E94D010F8944BB14F7040634BB9789424
:102040000E94721091E18FEF0E94D010F8944BB172
:102050004F7040634BB978940E94721090E088E70B
:102060000E94D010F8944BB14F7040634BB97894F4
:102070000E947210F8944BB14F7040624BB9789443
:102080000E94721008E20E9480100CE00E948010F2
:1020900006E00E9480100E94BE100F919F918F91C8
:1020A0004F9108950E9457100E94BD1008950F93FC
:1020B000012F0E946C100F9108958F939F930F939F
:1020C0000F7300640E94801090E088E20E94D0109C
:1020D0000F919F918F9108950F9300680E94801037
:1020E0000F9108958F939F93299A90E084E10E9425
:1020F000D010299884E10E94D0109F918F9108956B
:102100000F931F934F93102F107F000F000F000F9E
:10211000000F2898F8944BB14F70412B4BB978942D
:102120000E947210F8944BB14F70402B4BB97894C9
:102130000E9472104F911F910F9108950F931F935A
:102140004F93102F107F000F000F000F000F289AE1
:10215000F8944BB14F70412B4BB978940E94721098
:10216000F8944BB14F70402B4BB978940E94721089
:1021700028984F911F910F910895E0CF9F938F93CF
:102180000F9301E00E94801097E08FEF0E94D01023
:102190000F918F919F9108952A9A08952A980895F2
:1021A0004F9344E04A95F1F70197D9F74F9108957D
:040000000C94220139
:10020000534F4D45205245414C4C5920434F4F4C84
:10021000205445585420534C4944494E47204845A2
:100220005245202020202020202020202020202077
:1002300020202020202020202020202020202020BE
:100240002020000002E0E0E0F2E0A0E0B1E0059153
:100250000D930030E1F7EE27FF27A0E0B1E00E9408
:10026000001021E03327333411F40E945F01A0E035
:10027000432FA3954A95E9F74427421779F00D914A
:10028000003011F40E946101142F103110F0105150
:10029000105C0E94521043950C943D01203209F0ED
:1002A00023956FE07FEF8FEF8A95F1F77A95D9F775
:1002B0006A95C1F72032B9F633950C94330130E0DA
:0A02C0000895A0E0B1E00D9108954B
:00000001FF
