:020000020000FC
:102000004F938F939F930F93F89445B14C7F45B9AD
:1020100044B1436044B94BB14F704BB94AB1406FC2
:102020004AB9789490E084E60E94D01091E48FEF52
:102030000E94D010F8944BB14F7040634BB9789424
:102040000E94721091E18FEF0E94D010F8944BB172
:102050004F7040634BB978940E94721090E088E70B
:102060000E94D010F8944BB14F7040634BB97894F4
:102070000E947210F8944BB14F7040624BB9789443
:102080000E94721008E20E9480100CE00E948010F2
:1020900006E00E9480100E94BE100F919F918F91C8
:1020A0004F9108950E9457100E94BD1008950F93FC
:1020B000012F0E946C100F9108958F939F930F939F
:1020C0000F7300640E94801090E088E20E94D0109C
:1020D0000F919F918F9108950F9300680E94801037
:1020E0000F9108958F939F93299A90E084E10E9425
:1020F000D010299884E10E94D0109F918F9108956B
:102100000F931F934F93102F107F000F000F000F9E
:10211000000F2898F8944BB14F70412B4BB978942D
:102120000E947210F8944BB14F70402B4BB97894C9
:102130000E9472104F911F910F9108950F931F935A
:102140004F93102F107F000F000F000F000F289AE1
:10215000F8944BB14F70412B4BB978940E94721098
:10216000F8944BB14F70402B4BB978940E94721089
:1021700028984F911F910F910895E0CF9F938F93CF
:102180000F9301E00E94801097E08FEF0E94D01023
:102190000F918F919F9108952A9A08952A980895F2
:1021A0004F9344E04A95F1F70197D9F74F9108957D
:040000000C9400015B
:04002C000C94070227
:100200000E9400100E9448010E9453010E94EF01C9
:1002100000E0009300014427552700E310E00E940E
:10022000521011E00E9452100AE312E00E94521094
:1002300000E313E00E94521014E00E9452100E944A
:1002400063010E94E501203FE1F722270E94A501FA
:10025000309100013030E1F330E030930001403064
:1002600011F4503059F05A955F3F11F45BE34A9511
:100270000E9490010E94D0010C94280104E00030FB
:1002800029F00E94EE010A950C943F010C9446015E
:100290000F9300917A00006800937A0000E60093C3
:1002A0007C000F9108950F9300917A0000640093F1
:1002B0007A000F9108950F9300917A000074003432
:1002C000D9F30F9108952F9344270E94E5011FEF62
:1002D0000FEF0A95F1F71A95D9F7203FB1F32039BE
:1002E00089F0203189F02033A9F00E9490012FE09D
:1002F0001FEF0FEF0A95F1F71A95D9F72A95C1F775
:100300000C9465012F91089543954C3361F7442770
:100310000C9473014A954F3F41F74BE30C947501E0
:100320005F93542F33275A3020F03F5F5A500C947C
:100330009301032F005D10E00E945210052F005D15
:1003400011E00E9452105F91089555270E94E50127
:100350001FEF0FEF0A95F1F71A95D9F7203FB1F388
:10036000203989F0203181F02033A1F00E94D001A2
:100370002FE01FEF0FEF0A95F1F71A95D9F72A959D
:10038000C1F70C94A601089553955C3369F755277E
:100390000C94B4015A955F3F49F75BE30C94B601A6
:1003A0004F93452F33274A3020F03F5F4A500C943B
:1003B000D301032F005D13E00E945210042F005D53
:1003C00014E00E9452104F9108950E9453010E9420
:1003D0005B0120917900207F203F089508950F93BD
:1003E000F8940027009385000093840002E00093B6
:1003F0006F000DE0009381000DE30093890008E099
:100400000093880000270DBB78940F9108950F93F7
:100410000FB70F9301E0009300010F910FBF0F91F1
:0204200018952D
:00000001FF
